{
  "contractName": "ItemManager",
  "abi": [
    {
      "anonymous": false,
      "inputs": [
        {
          "indexed": false,
          "internalType": "uint256",
          "name": "_itemIndex",
          "type": "uint256"
        },
        {
          "indexed": false,
          "internalType": "address",
          "name": "_itemAddress",
          "type": "address"
        }
      ],
      "name": "SupplyChainSetItemAddress",
      "type": "event"
    },
    {
      "anonymous": false,
      "inputs": [
        {
          "indexed": false,
          "internalType": "uint256",
          "name": "_itemIndex",
          "type": "uint256"
        },
        {
          "indexed": false,
          "internalType": "uint256",
          "name": "_itemPrice",
          "type": "uint256"
        }
      ],
      "name": "SupplyChainSetPrice",
      "type": "event"
    },
    {
      "anonymous": false,
      "inputs": [
        {
          "indexed": false,
          "internalType": "uint256",
          "name": "_itemIndex",
          "type": "uint256"
        },
        {
          "indexed": false,
          "internalType": "uint256",
          "name": "_itemState",
          "type": "uint256"
        },
        {
          "indexed": false,
          "internalType": "address",
          "name": "_itemAddress",
          "type": "address"
        }
      ],
      "name": "SupplyChainSetState",
      "type": "event"
    },
    {
      "inputs": [],
      "name": "isOwner",
      "outputs": [
        {
          "internalType": "bool",
          "name": "",
          "type": "bool"
        }
      ],
      "stateMutability": "view",
      "type": "function",
      "constant": true
    },
    {
      "inputs": [
        {
          "internalType": "uint256",
          "name": "",
          "type": "uint256"
        }
      ],
      "name": "items",
      "outputs": [
        {
          "internalType": "contract Item",
          "name": "_item",
          "type": "address"
        },
        {
          "internalType": "string",
          "name": "_identifier",
          "type": "string"
        },
        {
          "internalType": "uint256",
          "name": "_itemPrice",
          "type": "uint256"
        },
        {
          "internalType": "enum ItemManager.SupplyChainState",
          "name": "_state",
          "type": "uint8"
        },
        {
          "internalType": "uint256",
          "name": "_itemQuality",
          "type": "uint256"
        }
      ],
      "stateMutability": "view",
      "type": "function",
      "constant": true
    },
    {
      "inputs": [
        {
          "internalType": "string",
          "name": "_identifier",
          "type": "string"
        },
        {
          "internalType": "uint256",
          "name": "_itemPrice",
          "type": "uint256"
        }
      ],
      "name": "createItem",
      "outputs": [],
      "stateMutability": "nonpayable",
      "type": "function"
    },
    {
      "inputs": [
        {
          "internalType": "uint256",
          "name": "_itemIndex",
          "type": "uint256"
        }
      ],
      "name": "triggerDelivery",
      "outputs": [],
      "stateMutability": "nonpayable",
      "type": "function"
    },
    {
      "inputs": [
        {
          "internalType": "uint256",
          "name": "_itemIndex",
          "type": "uint256"
        }
      ],
      "name": "triggerArrival",
      "outputs": [],
      "stateMutability": "nonpayable",
      "type": "function"
    },
    {
      "inputs": [
        {
          "internalType": "uint256",
          "name": "_itemIndex",
          "type": "uint256"
        },
        {
          "internalType": "uint256",
          "name": "_itemQuality",
          "type": "uint256"
        }
      ],
      "name": "triggerExamination",
      "outputs": [],
      "stateMutability": "nonpayable",
      "type": "function"
    },
    {
      "inputs": [
        {
          "internalType": "uint256",
          "name": "_itemIndex",
          "type": "uint256"
        }
      ],
      "name": "triggerPayment",
      "outputs": [],
      "stateMutability": "payable",
      "type": "function",
      "payable": true
    }
  ],
  "bytecode": "0x608060405234801561001057600080fd5b50336000806101000a81548173ffffffffffffffffffffffffffffffffffffffff021916908373ffffffffffffffffffffffffffffffffffffffff1602179055506113e7806100606000396000f3fe6080604052600436106100705760003560e01c8063a145353b1161004e578063a145353b146101a2578063a67480f5146101e7578063bfb231d214610222578063cd31831e1461031357610070565b8063800fb83f146100755780638c551742146100a35780638f32d59b14610175575b600080fd5b6100a16004803603602081101561008b57600080fd5b810190808035906020019092919050505061034e565b005b3480156100af57600080fd5b50610173600480360360408110156100c657600080fd5b81019080803590602001906401000000008111156100e357600080fd5b8201836020820111156100f557600080fd5b8035906020019184600183028401116401000000008311171561011757600080fd5b91908080601f016020809104026020016040519081016040528093929190818152602001838380828437600081840152601f19601f8201169050808301925050505050505091929192908035906020019092919050505061058a565b005b34801561018157600080fd5b5061018a610852565b60405180821515815260200191505060405180910390f35b3480156101ae57600080fd5b506101e5600480360360408110156101c557600080fd5b8101908080359060200190929190803590602001909291905050506108a9565b005b3480156101f357600080fd5b506102206004803603602081101561020a57600080fd5b8101908080359060200190929190505050610b26565b005b34801561022e57600080fd5b5061025b6004803603602081101561024557600080fd5b8101908080359060200190929190505050610cb9565b604051808673ffffffffffffffffffffffffffffffffffffffff1681526020018060200185815260200184600481111561029157fe5b8152602001838152602001828103825286818151815260200191508051906020019080838360005b838110156102d45780820151818401526020810190506102b9565b50505050905090810190601f1680156103015780820380516001836020036101000a031916815260200191505b50965050505050505060405180910390f35b34801561031f57600080fd5b5061034c6004803603602081101561033657600080fd5b8101908080359060200190929190505050610db4565b005b60006001600083815260200190815260200160002060000160009054906101000a900473ffffffffffffffffffffffffffffffffffffffff16905034600160008481526020019081526020016000206002015414610414576040517f08c379a00000000000000000000000000000000000000000000000000000000081526004018080602001828103825260128152602001807f4f6e6c792066756c6c207061796d656e7473000000000000000000000000000081525060200191505060405180910390fd5b6003600481111561042157fe5b6001600084815260200190815260200160002060030160009054906101000a900460ff16600481111561045057fe5b146104c3576040517f08c379a000000000000000000000000000000000000000000000000000000000815260040180806020018281038252601f8152602001807f546865206974656d20686173206e6f74206265656e206576616c75617465640081525060200191505060405180910390fd5b60046001600084815260200190815260200160002060030160006101000a81548160ff021916908360048111156104f657fe5b02179055507fcc1d9d56808773d015775fd19df37364bb2902347391f7c934f061d8bb4de210826001600085815260200190815260200160002060030160009054906101000a900460ff16600481111561054c57fe5b83604051808481526020018381526020018273ffffffffffffffffffffffffffffffffffffffff168152602001935050505060405180910390a15050565b610592610852565b610604576040517f08c379a00000000000000000000000000000000000000000000000000000000081526004018080602001828103825260158152602001807f596f7520617265206e6f7420746865206f776e6572000000000000000000000081525060200191505060405180910390fd5b60003060025460405161061690610fbd565b808373ffffffffffffffffffffffffffffffffffffffff16815260200182815260200192505050604051809103906000f080158015610659573d6000803e3d6000fd5b5090508060016000600254815260200190815260200160002060000160006101000a81548173ffffffffffffffffffffffffffffffffffffffff021916908373ffffffffffffffffffffffffffffffffffffffff1602179055508260016000600254815260200190815260200160002060010190805190602001906106df929190610fca565b508160016000600254815260200190815260200160002060020181905550600a60016000600254815260200190815260200160002060040181905550600060016000600254815260200190815260200160002060030160006101000a81548160ff0219169083600481111561075057fe5b02179055507fcc1d9d56808773d015775fd19df37364bb2902347391f7c934f061d8bb4de21060025460016000600254815260200190815260200160002060030160009054906101000a900460ff1660048111156107aa57fe5b83604051808481526020018381526020018273ffffffffffffffffffffffffffffffffffffffff168152602001935050505060405180910390a17fa3a48737e521ccdef89fea897adf0f00a7679bae9200152091f43871441b785160025482604051808381526020018273ffffffffffffffffffffffffffffffffffffffff1681526020019250505060405180910390a1600260008154809291906001019190505550505050565b60008060009054906101000a900473ffffffffffffffffffffffffffffffffffffffff1673ffffffffffffffffffffffffffffffffffffffff163373ffffffffffffffffffffffffffffffffffffffff1614905090565b600260048111156108b657fe5b6001600084815260200190815260200160002060030160009054906101000a900460ff1660048111156108e557fe5b14610958576040517f08c379a000000000000000000000000000000000000000000000000000000000815260040180806020018281038252601a8152602001807f546865206974656d206d7573742062652064656c69766572656400000000000081525060200191505060405180910390fd5b60036001600084815260200190815260200160002060030160006101000a81548160ff0219169083600481111561098b57fe5b02179055508060016000848152602001908152602001600020600401819055506000606482600a03600160008681526020019081526020016000206002015402816109d257fe5b0490508060016000858152602001908152602001600020600201540390508060016000858152602001908152602001600020600201819055507fcc1d9d56808773d015775fd19df37364bb2902347391f7c934f061d8bb4de210836001600086815260200190815260200160002060030160009054906101000a900460ff166004811115610a5c57fe5b6001600087815260200190815260200160002060000160009054906101000a900473ffffffffffffffffffffffffffffffffffffffff16604051808481526020018381526020018273ffffffffffffffffffffffffffffffffffffffff168152602001935050505060405180910390a17f1f70b522e359e3461ca05ea696500d8c03b006d3eea140bae7b4faa3273f720f836001600086815260200190815260200160002060020154604051808381526020018281526020019250505060405180910390a1505050565b60016004811115610b3357fe5b6001600083815260200190815260200160002060030160009054906101000a900460ff166004811115610b6257fe5b14610bd5576040517f08c379a000000000000000000000000000000000000000000000000000000000815260040180806020018281038252601b8152602001807f546865206974656d206d75737420626520696e207472616e736974000000000081525060200191505060405180910390fd5b60026001600083815260200190815260200160002060030160006101000a81548160ff02191690836004811115610c0857fe5b02179055507fcc1d9d56808773d015775fd19df37364bb2902347391f7c934f061d8bb4de2108160016000848152602001908152602001600020600201546001600085815260200190815260200160002060000160009054906101000a900473ffffffffffffffffffffffffffffffffffffffff16604051808481526020018381526020018273ffffffffffffffffffffffffffffffffffffffff168152602001935050505060405180910390a150565b60016020528060005260406000206000915090508060000160009054906101000a900473ffffffffffffffffffffffffffffffffffffffff1690806001018054600181600116156101000203166002900480601f016020809104026020016040519081016040528092919081815260200182805460018160011615610100020316600290048015610d8b5780601f10610d6057610100808354040283529160200191610d8b565b820191906000526020600020905b815481529060010190602001808311610d6e57829003601f168201915b5050505050908060020154908060030160009054906101000a900460ff16908060040154905085565b610dbc610852565b610e2e576040517f08c379a00000000000000000000000000000000000000000000000000000000081526004018080602001828103825260158152602001807f596f7520617265206e6f7420746865206f776e6572000000000000000000000081525060200191505060405180910390fd5b60006004811115610e3b57fe5b6001600083815260200190815260200160002060030160009054906101000a900460ff166004811115610e6a57fe5b14610ec0576040517f08c379a00000000000000000000000000000000000000000000000000000000081526004018080602001828103825260218152602001806113916021913960400191505060405180910390fd5b600180600083815260200190815260200160002060030160006101000a81548160ff02191690836004811115610ef257fe5b02179055507fcc1d9d56808773d015775fd19df37364bb2902347391f7c934f061d8bb4de2108160016000600254815260200190815260200160002060030160009054906101000a900460ff166004811115610f4a57fe5b6001600085815260200190815260200160002060000160009054906101000a900473ffffffffffffffffffffffffffffffffffffffff16604051808481526020018381526020018273ffffffffffffffffffffffffffffffffffffffff168152602001935050505060405180910390a150565b6103298061106883390190565b828054600181600116156101000203166002900490600052602060002090601f016020900481019282601f1061100b57805160ff1916838001178555611039565b82800160010185558215611039579182015b8281111561103857825182559160200191906001019061101d565b5b509050611046919061104a565b5090565b5b8082111561106357600081600090555060010161104b565b509056fe608060405234801561001057600080fd5b506040516103293803806103298339818101604052604081101561003357600080fd5b8101908080519060200190929190805190602001909291905050508060008190555081600160006101000a81548173ffffffffffffffffffffffffffffffffffffffff021916908373ffffffffffffffffffffffffffffffffffffffff1602179055505050610282806100a76000396000f3fe6080604052600436106100225760003560e01c80632986c0e5146101ef576101ea565b366101ea576000600160009054906101000a900473ffffffffffffffffffffffffffffffffffffffff1673ffffffffffffffffffffffffffffffffffffffff1634600054604051602401808281526020019150506040516020818303038152906040527f800fb83f000000000000000000000000000000000000000000000000000000007bffffffffffffffffffffffffffffffffffffffffffffffffffffffff19166020820180517bffffffffffffffffffffffffffffffffffffffffffffffffffffffff83818316178352505050506040518082805190602001908083835b602083106101265780518252602082019150602081019050602083039250610103565b6001836020036101000a03801982511681845116808217855250505050505090500191505060006040518083038185875af1925050503d8060008114610188576040519150601f19603f3d011682016040523d82523d6000602084013e61018d565b606091505b50509050806101e7576040517f08c379a000000000000000000000000000000000000000000000000000000000815260040180806020018281038252602c815260200180610221602c913960400191505060405180910390fd5b50005b600080fd5b3480156101fb57600080fd5b5061020461021a565b6040518082815260200191505060405180910390f35b6000548156fe546865207472616e73616374696f6e207761736e2774207375636365737366756c2c2063616e63656c696e67a264697066735822122069234ad10b07183a978069ea1373b11bbf0d9e6fd4207ce9c26ad30746a4f60864736f6c634300060c0033546865206974656d2068617320616c7265616479206265656e2063726561746564a264697066735822122037070749302529e368442994b787e689423bb2e7ca8aa89ad16961de4f5e006a64736f6c634300060c0033",
  "immutableReferences": {},
  "source": "// SPDX-License-Identifier: MIT\r\npragma solidity ^0.6.0;\r\nimport \"./Ownable.sol\";\r\nimport \"./Item.sol\";\r\n\r\ncontract ItemManager is Ownable{\r\n    enum SupplyChainState{Created, InTransit, Delivered, Evaluated, Paid}\r\n    enum SupplyChainQuality{Good, Bad}\r\n\r\n    struct S_Item {\r\n        Item _item;\r\n        string _identifier;\r\n        uint _itemPrice;\r\n        ItemManager.SupplyChainState _state;\r\n        uint _itemQuality;\r\n\r\n\r\n    }\r\n    mapping(uint =>  S_Item) public items;\r\n    uint itemIndex;\r\n\r\n    event SupplyChainSetState(uint _itemIndex, uint _itemState, address _itemAddress);\r\n    event SupplyChainSetPrice(uint _itemIndex, uint _itemPrice);\r\n    event SupplyChainSetItemAddress(uint _itemIndex, address _itemAddress);\r\n\r\n    function createItem(string memory _identifier, uint _itemPrice) public onlyOwner{\r\n        Item item = new Item(this, itemIndex);\r\n        items[itemIndex]._item = item;\r\n        items[itemIndex]._identifier = _identifier;\r\n        items[itemIndex]._itemPrice = _itemPrice;\r\n        items[itemIndex]._itemQuality = 10;\r\n        items[itemIndex]._state = SupplyChainState.Created;\r\n\r\n        emit SupplyChainSetState(itemIndex, uint(items[itemIndex]._state), address(item));\r\n        emit SupplyChainSetItemAddress(itemIndex, address(item));\r\n        itemIndex++;\r\n    }\r\n\r\n    function triggerDelivery(uint _itemIndex) public onlyOwner{\r\n        require(items[_itemIndex]._state == SupplyChainState.Created, \"The item has already been created\");\r\n        items[_itemIndex]._state = SupplyChainState.InTransit;\r\n        emit SupplyChainSetState(_itemIndex, uint(items[itemIndex]._state), address(items[_itemIndex]._item));\r\n    }\r\n\r\n    function triggerArrival(uint _itemIndex) public {\r\n        require(items[_itemIndex]._state == SupplyChainState.InTransit, \"The item must be in transit\");\r\n        items[_itemIndex]._state = SupplyChainState.Delivered;\r\n\r\n        emit SupplyChainSetState(_itemIndex, uint(items[_itemIndex]._itemPrice),address(items[_itemIndex]._item));\r\n\r\n\r\n    }\r\n\r\n    function triggerExamination(uint _itemIndex, uint _itemQuality) public {\r\n        require(items[_itemIndex]._state == SupplyChainState.Delivered, \"The item must be delivered\");\r\n        items[_itemIndex]._state = SupplyChainState.Evaluated;\r\n        items[_itemIndex]._itemQuality = _itemQuality;\r\n\r\n        uint newPrice = items[_itemIndex]._itemPrice * (10 - _itemQuality)/100;\r\n        newPrice = items[_itemIndex]._itemPrice - newPrice;\r\n\r\n        items[_itemIndex]._itemPrice = newPrice;\r\n\r\n        emit SupplyChainSetState(_itemIndex, uint(items[_itemIndex]._state), address(items[_itemIndex]._item));\r\n        emit SupplyChainSetPrice(_itemIndex, uint(items[_itemIndex]._itemPrice));\r\n\r\n\r\n    }\r\n\r\n    function triggerPayment(uint _itemIndex) public payable {\r\n        Item item = items[_itemIndex]._item;\r\n        require(items[_itemIndex]._itemPrice == msg.value, \"Only full payments\");\r\n        require(items[_itemIndex]._state == SupplyChainState.Evaluated, \"The item has not been evaluated\");\r\n        items[_itemIndex]._state = SupplyChainState.Paid;\r\n\r\n        emit SupplyChainSetState(_itemIndex, uint(items[_itemIndex]._state), address(item));\r\n    }\r\n}",
  "sourcePath": "C:\\Users\\crist\\Desktop\\test2\\contracts\\ItemManager.sol",
  "compiler": {
    "name": "solc",
    "version": "0.6.12+commit.27d51765.Emscripten.clang"
  },
  "schemaVersion": "3.4.7",
  "updatedAt": "2022-05-23T11:16:51.908Z",
  "networkType": "ethereum",
  "devdoc": {
    "kind": "dev",
    "methods": {},
    "version": 1
  },
  "userdoc": {
    "kind": "user",
    "methods": {},
    "version": 1
  }
}