{
  "contractName": "Item",
  "abi": [
    {
      "inputs": [
        {
          "internalType": "contract ItemManager",
          "name": "_parentContract",
          "type": "address"
        },
        {
          "internalType": "uint256",
          "name": "_index",
          "type": "uint256"
        }
      ],
      "stateMutability": "nonpayable",
      "type": "constructor"
    },
    {
      "inputs": [],
      "name": "index",
      "outputs": [
        {
          "internalType": "uint256",
          "name": "",
          "type": "uint256"
        }
      ],
      "stateMutability": "view",
      "type": "function"
    },
    {
      "stateMutability": "payable",
      "type": "receive"
    }
  ],
  "bytecode": "0x608060405234801561001057600080fd5b506040516103293803806103298339818101604052604081101561003357600080fd5b8101908080519060200190929190805190602001909291905050508060008190555081600160006101000a81548173ffffffffffffffffffffffffffffffffffffffff021916908373ffffffffffffffffffffffffffffffffffffffff1602179055505050610282806100a76000396000f3fe6080604052600436106100225760003560e01c80632986c0e5146101ef576101ea565b366101ea576000600160009054906101000a900473ffffffffffffffffffffffffffffffffffffffff1673ffffffffffffffffffffffffffffffffffffffff1634600054604051602401808281526020019150506040516020818303038152906040527f800fb83f000000000000000000000000000000000000000000000000000000007bffffffffffffffffffffffffffffffffffffffffffffffffffffffff19166020820180517bffffffffffffffffffffffffffffffffffffffffffffffffffffffff83818316178352505050506040518082805190602001908083835b602083106101265780518252602082019150602081019050602083039250610103565b6001836020036101000a03801982511681845116808217855250505050505090500191505060006040518083038185875af1925050503d8060008114610188576040519150601f19603f3d011682016040523d82523d6000602084013e61018d565b606091505b50509050806101e7576040517f08c379a000000000000000000000000000000000000000000000000000000000815260040180806020018281038252602c815260200180610221602c913960400191505060405180910390fd5b50005b600080fd5b3480156101fb57600080fd5b5061020461021a565b6040518082815260200191505060405180910390f35b6000548156fe546865207472616e73616374696f6e207761736e2774207375636365737366756c2c2063616e63656c696e67a2646970667358221220b2c3d0f4f7c585787184842513b31d75c74aea9f620a48448d0925f14ce6777564736f6c634300060c0033",
  "immutableReferences": {},
  "source": "// SPDX-License-Identifier: MIT\r\npragma solidity ^0.6.0;\r\nimport \"./ItemManager.sol\";\r\ncontract Item {\r\n    uint public index;\r\n\r\n    ItemManager parentContract;\r\n\r\n    constructor(ItemManager _parentContract, uint _index) public {\r\n        index = _index;\r\n        parentContract = _parentContract;\r\n    }\r\n\r\n    receive() external payable {\r\n        (bool success, ) = address(parentContract).call.value(msg.value)(abi.encodeWithSignature(\"triggerPayment(uint256)\", index));\r\n        require(success, \"The transaction wasn't successful, canceling\");\r\n    }\r\n\r\n\r\n\r\n}\r\n",
  "sourcePath": "C:\\Users\\crist\\Desktop\\test2\\contracts\\Item.sol",
  "compiler": {
    "name": "solc",
    "version": "0.6.12+commit.27d51765.Emscripten.clang"
  },
  "schemaVersion": "3.4.7",
  "updatedAt": "2022-05-23T06:52:56.069Z",
  "devdoc": {
    "kind": "dev",
    "methods": {},
    "version": 1
  },
  "userdoc": {
    "kind": "user",
    "methods": {},
    "version": 1
  }
}