{
  "contractName": "Item",
  "abi": [
    {
      "inputs": [
        {
          "internalType": "contract ItemManager",
          "name": "_parentContract",
          "type": "address"
        },
        {
          "internalType": "uint256",
          "name": "_priceInWei",
          "type": "uint256"
        },
        {
          "internalType": "uint256",
          "name": "_index",
          "type": "uint256"
        }
      ],
      "stateMutability": "nonpayable",
      "type": "constructor"
    },
    {
      "inputs": [],
      "name": "index",
      "outputs": [
        {
          "internalType": "uint256",
          "name": "",
          "type": "uint256"
        }
      ],
      "stateMutability": "view",
      "type": "function"
    },
    {
      "inputs": [],
      "name": "priceInWei",
      "outputs": [
        {
          "internalType": "uint256",
          "name": "",
          "type": "uint256"
        }
      ],
      "stateMutability": "view",
      "type": "function"
    },
    {
      "inputs": [],
      "name": "pricePaid",
      "outputs": [
        {
          "internalType": "uint256",
          "name": "",
          "type": "uint256"
        }
      ],
      "stateMutability": "view",
      "type": "function"
    },
    {
      "stateMutability": "payable",
      "type": "receive"
    }
  ],
  "bytecode": "0x608060405234801561001057600080fd5b506040516104b13803806104b18339818101604052606081101561003357600080fd5b81019080805190602001909291908051906020019092919080519060200190929190505050816000819055508060018190555082600360006101000a81548173ffffffffffffffffffffffffffffffffffffffff021916908373ffffffffffffffffffffffffffffffffffffffff1602179055505050506103f8806100b96000396000f3fe6080604052600436106100385760003560e01c80632986c0e5146103045780633c8da5881461032f57806389794d001461035a576102ff565b366102ff576000600254146100b5576040517f08c379a00000000000000000000000000000000000000000000000000000000081526004018080602001828103825260148152602001807f4974656d206973207061696420616c726561647900000000000000000000000081525060200191505060405180910390fd5b346000541461012c576040517f08c379a000000000000000000000000000000000000000000000000000000000815260040180806020018281038252601b8152602001807f4f6e6c792066756c6c207061796d656e7473206163636570746564000000000081525060200191505060405180910390fd5b346002600082825401925050819055506000600360009054906101000a900473ffffffffffffffffffffffffffffffffffffffff1673ffffffffffffffffffffffffffffffffffffffff1634600154604051602401808281526020019150506040516020818303038152906040527f800fb83f000000000000000000000000000000000000000000000000000000007bffffffffffffffffffffffffffffffffffffffffffffffffffffffff19166020820180517bffffffffffffffffffffffffffffffffffffffffffffffffffffffff83818316178352505050506040518082805190602001908083835b6020831061023b5780518252602082019150602081019050602083039250610218565b6001836020036101000a03801982511681845116808217855250505050505090500191505060006040518083038185875af1925050503d806000811461029d576040519150601f19603f3d011682016040523d82523d6000602084013e6102a2565b606091505b50509050806102fc576040517f08c379a000000000000000000000000000000000000000000000000000000000815260040180806020018281038252602b815260200180610398602b913960400191505060405180910390fd5b50005b600080fd5b34801561031057600080fd5b50610319610385565b6040518082815260200191505060405180910390f35b34801561033b57600080fd5b5061034461038b565b6040518082815260200191505060405180910390f35b34801561036657600080fd5b5061036f610391565b6040518082815260200191505060405180910390f35b60015481565b60005481565b6002548156fe546865207472616e73616374696f6e207761736e27207375636365737366756c2c2063616e63656c696e67a264697066735822122094857f77f77c2034497c9de8c3ba3fa71e894f7c376cdf00c415c5c5084dfc0f64736f6c634300060c0033",
  "immutableReferences": {},
  "source": "// SPDX-License-Identifier: MIT\r\npragma solidity ^0.6.0;\r\nimport \"./ItemManager.sol\";\r\n\r\ncontract Item {\r\n    uint public priceInWei;\r\n    uint public index;\r\n    uint public pricePaid;\r\n\r\n    ItemManager parentContract;\r\n\r\n    constructor(ItemManager _parentContract, uint _priceInWei, uint _index) public {\r\n        priceInWei = _priceInWei;\r\n        index = _index;\r\n        parentContract = _parentContract;\r\n    }\r\n\r\n    receive() external payable {\r\n        require(pricePaid == 0, \"Item is paid already\");\r\n        require(priceInWei == msg.value, \"Only full payments accepted\");\r\n        pricePaid += msg.value;\r\n\r\n        (bool success, ) = address(parentContract).call{value:msg.value}(abi.encodeWithSignature(\"triggerPayment(uint256)\", index));\r\n        require(success, \"The transaction wasn' successful, canceling\");\r\n    }\r\n}",
  "sourcePath": "C:\\Users\\crist\\Desktop\\test2\\contracts\\Item.sol",
  "compiler": {
    "name": "solc",
    "version": "0.6.12+commit.27d51765.Emscripten.clang"
  },
  "schemaVersion": "3.4.7",
  "updatedAt": "2022-05-21T16:34:11.856Z",
  "devdoc": {
    "kind": "dev",
    "methods": {},
    "version": 1
  },
  "userdoc": {
    "kind": "user",
    "methods": {},
    "version": 1
  }
}